{
  "contractName": "Proofs",
  "abi": [
    {
      "anonymous": false,
      "inputs": [
        {
          "indexed": false,
          "name": "status",
          "type": "bool"
        },
        {
          "indexed": false,
          "name": "timestamp",
          "type": "uint256"
        },
        {
          "indexed": false,
          "name": "owner",
          "type": "string"
        },
        {
          "indexed": false,
          "name": "fileHash",
          "type": "string"
        }
      ],
      "name": "logFileAddedStatus",
      "type": "event",
      "signature": "0x0d3bbc3c02da6ed436712ca1a0f626f1269df703a105f034e4637c7b10fb7ba5"
    },
    {
      "constant": false,
      "inputs": [
        {
          "name": "owner",
          "type": "string"
        },
        {
          "name": "fileHash",
          "type": "string"
        }
      ],
      "name": "setOwner",
      "outputs": [],
      "payable": false,
      "stateMutability": "nonpayable",
      "type": "function",
      "signature": "0x562890cc"
    },
    {
      "constant": true,
      "inputs": [
        {
          "name": "fileHash",
          "type": "string"
        }
      ],
      "name": "getFile",
      "outputs": [
        {
          "name": "timestamp",
          "type": "uint256"
        },
        {
          "name": "owner",
          "type": "string"
        }
      ],
      "payable": false,
      "stateMutability": "view",
      "type": "function",
      "signature": "0xe0876aa8"
    }
  ],
  "bytecode": "0x608060405234801561001057600080fd5b506108b5806100206000396000f3fe60806040526004361061004c576000357c0100000000000000000000000000000000000000000000000000000000900463ffffffff168063562890cc14610051578063e0876aa8146101b0575b600080fd5b34801561005d57600080fd5b506101ae6004803603604081101561007457600080fd5b810190808035906020019064010000000081111561009157600080fd5b8201836020820111156100a357600080fd5b803590602001918460018302840111640100000000831117156100c557600080fd5b91908080601f016020809104026020016040519081016040528093929190818152602001838380828437600081840152601f19601f8201169050808301925050505050505091929192908035906020019064010000000081111561012857600080fd5b82018360208201111561013a57600080fd5b8035906020019184600183028401116401000000008311171561015c57600080fd5b91908080601f016020809104026020016040519081016040528093929190818152602001838380828437600081840152601f19601f8201169050808301925050505050505091929192905050506102f8565b005b3480156101bc57600080fd5b50610276600480360360208110156101d357600080fd5b81019080803590602001906401000000008111156101f057600080fd5b82018360208201111561020257600080fd5b8035906020019184600183028401116401000000008311171561022457600080fd5b91908080601f016020809104026020016040519081016040528093929190818152602001838380828437600081840152601f19601f82011690508083019250505050505050919291929050505061065e565b6040518083815260200180602001828103825283818151815260200191508051906020019080838360005b838110156102bc5780820151818401526020810190506102a1565b50505050905090810190601f1680156102e95780820380516001836020036101000a031916815260200191505b50935050505060405180910390f35b600080826040518082805190602001908083835b602083101515610331578051825260208201915060208101905060208303925061030c565b6001836020036101000a038019825116818451168082178552505050505050905001915050908152602001604051809103902060000154141561053b576040805190810160405280428152602001838152506000826040518082805190602001908083835b6020831015156103bb5780518252602082019150602081019050602083039250610396565b6001836020036101000a03801982511681845116808217855250505050505090500191505090815260200160405180910390206000820151816000015560208201518160010190805190602001906104149291906107e4565b509050507f0d3bbc3c02da6ed436712ca1a0f626f1269df703a105f034e4637c7b10fb7ba5600142848460405180851515151581526020018481526020018060200180602001838103835285818151815260200191508051906020019080838360005b83811015610492578082015181840152602081019050610477565b50505050905090810190601f1680156104bf5780820380516001836020036101000a031916815260200191505b50838103825284818151815260200191508051906020019080838360005b838110156104f85780820151818401526020810190506104dd565b50505050905090810190601f1680156105255780820380516001836020036101000a031916815260200191505b50965050505050505060405180910390a161065a565b7f0d3bbc3c02da6ed436712ca1a0f626f1269df703a105f034e4637c7b10fb7ba5600042848460405180851515151581526020018481526020018060200180602001838103835285818151815260200191508051906020019080838360005b838110156105b557808201518184015260208101905061059a565b50505050905090810190601f1680156105e25780820380516001836020036101000a031916815260200191505b50838103825284818151815260200191508051906020019080838360005b8381101561061b578082015181840152602081019050610600565b50505050905090810190601f1680156106485780820380516001836020036101000a031916815260200191505b50965050505050505060405180910390a15b5050565b600060606000836040518082805190602001908083835b60208310151561069a5780518252602082019150602081019050602083039250610675565b6001836020036101000a0380198251168184511680821785525050505050509050019150509081526020016040518091039020600001546000846040518082805190602001908083835b60208310151561070957805182526020820191506020810190506020830392506106e4565b6001836020036101000a0380198251168184511680821785525050505050509050019150509081526020016040518091039020600101808054600181600116156101000203166002900480601f0160208091040260200160405190810160405280929190818152602001828054600181600116156101000203166002900480156107d45780601f106107a9576101008083540402835291602001916107d4565b820191906000526020600020905b8154815290600101906020018083116107b757829003601f168201915b5050505050905091509150915091565b828054600181600116156101000203166002900490600052602060002090601f016020900481019282601f1061082557805160ff1916838001178555610853565b82800160010185558215610853579182015b82811115610852578251825591602001919060010190610837565b5b5090506108609190610864565b5090565b61088691905b8082111561088257600081600090555060010161086a565b5090565b9056fea165627a7a723058203215cd853af2003544ef47e72a0f1a49eb1655e73a085b72fbbed46f7146833b0029",
  "source": "pragma solidity 0.5.0;\n\n\ncontract Proofs{\n\n    struct FileDetails{\n        uint  timestamp;\n        string owner;\n    }\n\n    mapping(string => FileDetails) Files;\n\n    event logFileAddedStatus(bool status, uint timestamp, string owner, string fileHash);\n\n    function setOwner(string memory owner, string memory fileHash) public{\n\n        if(Files[fileHash].timestamp == 0){\n            Files[fileHash] = FileDetails(block.timestamp, owner);   \n\n            emit logFileAddedStatus(true,block.timestamp, owner, fileHash);\n        }\n        else{\n             emit logFileAddedStatus(false, block.timestamp, owner, fileHash);\n        }\n    }\n\n    function getFile(string memory fileHash) public view returns (uint  timestamp, string  memory owner)  {\n        return (Files[fileHash].timestamp, Files[fileHash].owner);\n    }\n}",
  "sourcePath": "/home/akhil/Desktop/My_workspace/My_POE/contracts/Proofs.sol",
  "compiler": {
    "name": "solc",
    "version": "0.5.0+commit.1d4f565a.Emscripten.clang"
  },
  "schemaVersion": "3.0.1",
  "updatedAt": "2019-03-18T09:31:24.136Z",
  "devdoc": {
    "methods": {}
  },
  "userdoc": {
    "methods": {}
  }
}